{
  "contractName": "Voting",
  "abi": [
    {
      "inputs": [
        {
          "internalType": "bytes32[]",
          "name": "proposalNames",
          "type": "bytes32[]"
        }
      ],
      "stateMutability": "nonpayable",
      "type": "constructor"
    },
    {
      "inputs": [],
      "name": "chairperson",
      "outputs": [
        {
          "internalType": "address",
          "name": "",
          "type": "address"
        }
      ],
      "stateMutability": "view",
      "type": "function",
      "constant": true
    },
    {
      "inputs": [
        {
          "internalType": "uint256",
          "name": "",
          "type": "uint256"
        }
      ],
      "name": "proposals",
      "outputs": [
        {
          "internalType": "bytes32",
          "name": "name",
          "type": "bytes32"
        },
        {
          "internalType": "uint256",
          "name": "voteCount",
          "type": "uint256"
        }
      ],
      "stateMutability": "view",
      "type": "function",
      "constant": true
    },
    {
      "inputs": [
        {
          "internalType": "address",
          "name": "",
          "type": "address"
        }
      ],
      "name": "voters",
      "outputs": [
        {
          "internalType": "uint256",
          "name": "weight",
          "type": "uint256"
        },
        {
          "internalType": "bool",
          "name": "voted",
          "type": "bool"
        },
        {
          "internalType": "address",
          "name": "delegate",
          "type": "address"
        },
        {
          "internalType": "uint256",
          "name": "vote",
          "type": "uint256"
        }
      ],
      "stateMutability": "view",
      "type": "function",
      "constant": true
    },
    {
      "inputs": [
        {
          "internalType": "address",
          "name": "voter",
          "type": "address"
        }
      ],
      "name": "giveRightToVote",
      "outputs": [],
      "stateMutability": "nonpayable",
      "type": "function"
    },
    {
      "inputs": [
        {
          "internalType": "uint256",
          "name": "proposal",
          "type": "uint256"
        }
      ],
      "name": "vote",
      "outputs": [],
      "stateMutability": "nonpayable",
      "type": "function"
    },
    {
      "inputs": [],
      "name": "winningProposal",
      "outputs": [
        {
          "internalType": "uint256",
          "name": "winningProposal_",
          "type": "uint256"
        }
      ],
      "stateMutability": "view",
      "type": "function",
      "constant": true
    },
    {
      "inputs": [],
      "name": "winnerName",
      "outputs": [
        {
          "internalType": "bytes32",
          "name": "winnerName_",
          "type": "bytes32"
        }
      ],
      "stateMutability": "view",
      "type": "function",
      "constant": true
    }
  ],
  "bytecode": "0x60806040523480156200001157600080fd5b50604051620010053803806200100583398181016040528101906200003791906200025b565b336000806101000a81548173ffffffffffffffffffffffffffffffffffffffff021916908373ffffffffffffffffffffffffffffffffffffffff16021790555060018060008060009054906101000a900473ffffffffffffffffffffffffffffffffffffffff1673ffffffffffffffffffffffffffffffffffffffff1673ffffffffffffffffffffffffffffffffffffffff1681526020019081526020016000206000018190555060005b81518110156200019a576002604051806040016040528084848151811062000133577f4e487b7100000000000000000000000000000000000000000000000000000000600052603260045260246000fd5b6020026020010151815260200160008152509080600181540180825580915050600190039060005260206000209060020201600090919091909150600082015181600001556020820151816001015550508080620001919062000342565b915050620000e2565b505062000419565b6000620001b9620001b384620002c9565b620002a0565b90508083825260208201905082856020860282011115620001d957600080fd5b60005b858110156200020d5781620001f2888262000244565b845260208401935060208301925050600181019050620001dc565b5050509392505050565b600082601f8301126200022957600080fd5b81516200023b848260208601620001a2565b91505092915050565b6000815190506200025581620003ff565b92915050565b6000602082840312156200026e57600080fd5b600082015167ffffffffffffffff8111156200028957600080fd5b620002978482850162000217565b91505092915050565b6000620002ac620002bf565b9050620002ba82826200030c565b919050565b6000604051905090565b600067ffffffffffffffff821115620002e757620002e6620003bf565b5b602082029050602081019050919050565b6000819050919050565b6000819050919050565b6200031782620003ee565b810181811067ffffffffffffffff82111715620003395762000338620003bf565b5b80604052505050565b60006200034f8262000302565b91507fffffffffffffffffffffffffffffffffffffffffffffffffffffffffffffffff82141562000385576200038462000390565b5b600182019050919050565b7f4e487b7100000000000000000000000000000000000000000000000000000000600052601160045260246000fd5b7f4e487b7100000000000000000000000000000000000000000000000000000000600052604160045260246000fd5b6000601f19601f8301169050919050565b6200040a81620002f8565b81146200041657600080fd5b50565b610bdc80620004296000396000f3fe608060405234801561001057600080fd5b506004361061007d5760003560e01c8063609ff1bd1161005b578063609ff1bd146100ed5780639e7b8d611461010b578063a3ec138d14610127578063e2ba53f01461015a5761007d565b80630121b93f14610082578063013cf08b1461009e5780632e4176cf146100cf575b600080fd5b61009c60048036038101906100979190610707565b610178565b005b6100b860048036038101906100b39190610707565b6102e4565b6040516100c6929190610851565b60405180910390f35b6100d7610318565b6040516100e4919061081b565b60405180910390f35b6100f561033c565b604051610102919061091a565b60405180910390f35b610125600480360381019061012091906106de565b610410565b005b610141600480360381019061013c91906106de565b6105fd565b6040516101519493929190610935565b60405180910390f35b61016261065a565b60405161016f9190610836565b60405180910390f35b6000600160003373ffffffffffffffffffffffffffffffffffffffff1673ffffffffffffffffffffffffffffffffffffffff16815260200190815260200160002090508060010160009054906101000a900460ff161561020d576040517f08c379a00000000000000000000000000000000000000000000000000000000081526004016102049061089a565b60405180910390fd5b6002805490508210610254576040517f08c379a000000000000000000000000000000000000000000000000000000000815260040161024b906108fa565b60405180910390fd5b60018160010160006101000a81548160ff0219169083151502179055508181600201819055508060000154600283815481106102b9577f4e487b7100000000000000000000000000000000000000000000000000000000600052603260045260246000fd5b906000526020600020906002020160010160008282546102d9919061098b565b925050819055505050565b600281815481106102f457600080fd5b90600052602060002090600202016000915090508060000154908060010154905082565b60008054906101000a900473ffffffffffffffffffffffffffffffffffffffff1681565b6000806000905060005b60028054905081101561040b57816002828154811061038e577f4e487b7100000000000000000000000000000000000000000000000000000000600052603260045260246000fd5b90600052602060002090600202016001015411156103f857600281815481106103e0577f4e487b7100000000000000000000000000000000000000000000000000000000600052603260045260246000fd5b90600052602060002090600202016001015491508092505b808061040390610a33565b915050610346565b505090565b60008054906101000a900473ffffffffffffffffffffffffffffffffffffffff1673ffffffffffffffffffffffffffffffffffffffff163373ffffffffffffffffffffffffffffffffffffffff161461049e576040517f08c379a0000000000000000000000000000000000000000000000000000000008152600401610495906108ba565b60405180910390fd5b600160008273ffffffffffffffffffffffffffffffffffffffff1673ffffffffffffffffffffffffffffffffffffffff16815260200190815260200160002060010160009054906101000a900460ff161561052e576040517f08c379a0000000000000000000000000000000000000000000000000000000008152600401610525906108da565b60405180910390fd5b6000600160008373ffffffffffffffffffffffffffffffffffffffff1673ffffffffffffffffffffffffffffffffffffffff16815260200190815260200160002060000154146105b3576040517f08c379a00000000000000000000000000000000000000000000000000000000081526004016105aa9061087a565b60405180910390fd5b60018060008373ffffffffffffffffffffffffffffffffffffffff1673ffffffffffffffffffffffffffffffffffffffff1681526020019081526020016000206000018190555050565b60016020528060005260406000206000915090508060000154908060010160009054906101000a900460ff16908060010160019054906101000a900473ffffffffffffffffffffffffffffffffffffffff16908060020154905084565b6000600261066661033c565b8154811061069d577f4e487b7100000000000000000000000000000000000000000000000000000000600052603260045260246000fd5b906000526020600020906002020160000154905090565b6000813590506106c381610b78565b92915050565b6000813590506106d881610b8f565b92915050565b6000602082840312156106f057600080fd5b60006106fe848285016106b4565b91505092915050565b60006020828403121561071957600080fd5b6000610727848285016106c9565b91505092915050565b610739816109e1565b82525050565b610748816109f3565b82525050565b610757816109ff565b82525050565b600061076a601a8361097a565b915061077582610aab565b602082019050919050565b600061078d600e8361097a565b915061079882610ad4565b602082019050919050565b60006107b060208361097a565b91506107bb82610afd565b602082019050919050565b60006107d360188361097a565b91506107de82610b26565b602082019050919050565b60006107f660168361097a565b915061080182610b4f565b602082019050919050565b61081581610a29565b82525050565b60006020820190506108306000830184610730565b92915050565b600060208201905061084b600083018461074e565b92915050565b6000604082019050610866600083018561074e565b610873602083018461080c565b9392505050565b600060208201905081810360008301526108938161075d565b9050919050565b600060208201905081810360008301526108b381610780565b9050919050565b600060208201905081810360008301526108d3816107a3565b9050919050565b600060208201905081810360008301526108f3816107c6565b9050919050565b60006020820190508181036000830152610913816107e9565b9050919050565b600060208201905061092f600083018461080c565b92915050565b600060808201905061094a600083018761080c565b610957602083018661073f565b6109646040830185610730565b610971606083018461080c565b95945050505050565b600082825260208201905092915050565b600061099682610a29565b91506109a183610a29565b9250827fffffffffffffffffffffffffffffffffffffffffffffffffffffffffffffffff038211156109d6576109d5610a7c565b5b828201905092915050565b60006109ec82610a09565b9050919050565b60008115159050919050565b6000819050919050565b600073ffffffffffffffffffffffffffffffffffffffff82169050919050565b6000819050919050565b6000610a3e82610a29565b91507fffffffffffffffffffffffffffffffffffffffffffffffffffffffffffffffff821415610a7157610a70610a7c565b5b600182019050919050565b7f4e487b7100000000000000000000000000000000000000000000000000000000600052601160045260246000fd5b7f566f74696e6720726967687420616c726561647920676976656e000000000000600082015250565b7f416c726561647920766f7465642e000000000000000000000000000000000000600082015250565b7f4f6e6c79206368616972706572736f6e2063616e206769766520726967687473600082015250565b7f54686520766f74657220616c726561647920766f7465642e0000000000000000600082015250565b7f496e76616c69642070726f706f73616c20696e64657800000000000000000000600082015250565b610b81816109e1565b8114610b8c57600080fd5b50565b610b9881610a29565b8114610ba357600080fd5b5056fea26469706673582212207ecb4aecbbbdacdcc3cda75e764ba57efefcdf246b8ff7cb2857002f410e6b9c64736f6c63430008020033",
  "immutableReferences": {},
  "source": "// SPDX-License-Identifier: MIT\npragma solidity >=0.4.22 <0.9.0;\n\ncontract Voting {\n    struct Voter {\n        uint weight;      // Weight is accumulated via delegation\n        bool voted;       // Has the voter already voted?\n        address delegate; // Address delegated to\n        uint vote;        // Index of the voted proposal\n    }\n\n    struct Proposal {\n        bytes32 name;   // Proposal name (bytes32 for simplicity)\n        uint voteCount; // Total votes for this proposal\n    }\n\n    address public chairperson;\n    mapping(address => Voter) public voters;\n    Proposal[] public proposals;\n\n    /// @notice Constructor: Initializes proposals\n    constructor(bytes32[] memory proposalNames) {\n        chairperson = msg.sender;\n        voters[chairperson].weight = 1;\n        for (uint i = 0; i < proposalNames.length; i++) {\n            proposals.push(Proposal({\n                name: proposalNames[i],\n                voteCount: 0\n            }));\n        }\n    }\n\n    /// @notice Give a voter the right to vote.\n    function giveRightToVote(address voter) public {\n        require(msg.sender == chairperson, \"Only chairperson can give rights\");\n        require(!voters[voter].voted, \"The voter already voted.\");\n        require(voters[voter].weight == 0, \"Voting right already given\");\n        voters[voter].weight = 1;\n    }\n\n    /// @notice Cast a vote for a proposal.\n    function vote(uint proposal) public {\n        Voter storage sender = voters[msg.sender];\n        require(!sender.voted, \"Already voted.\");\n        require(proposal < proposals.length, \"Invalid proposal index\");\n        sender.voted = true;\n        sender.vote = proposal;\n        proposals[proposal].voteCount += sender.weight;\n    }\n\n    /// @notice Compute the winning proposal\n    function winningProposal() public view returns (uint winningProposal_) {\n        uint winningVoteCount = 0;\n        for (uint p = 0; p < proposals.length; p++) {\n            if (proposals[p].voteCount > winningVoteCount) {\n                winningVoteCount = proposals[p].voteCount;\n                winningProposal_ = p;\n            }\n        }\n    }\n\n    /// @notice Returns the name of the winning proposal.\n    function winnerName() public view returns (bytes32 winnerName_) {\n        winnerName_ = proposals[winningProposal()].name;\n    }\n}\n",
  "sourcePath": "/Users/santosh/Projects/blockchain/calci/blockchain/contracts/Voting.sol",
  "compiler": {
    "name": "solc",
    "version": "0.8.2+commit.661d1103.Emscripten.clang"
  },
  "schemaVersion": "3.4.16",
  "updatedAt": "2025-02-16T13:35:08.103Z",
  "networkType": "ethereum",
  "devdoc": {
    "kind": "dev",
    "methods": {},
    "version": 1
  },
  "userdoc": {
    "kind": "user",
    "methods": {
      "constructor": {
        "notice": "Constructor: Initializes proposals"
      },
      "giveRightToVote(address)": {
        "notice": "Give a voter the right to vote."
      },
      "vote(uint256)": {
        "notice": "Cast a vote for a proposal."
      },
      "winnerName()": {
        "notice": "Returns the name of the winning proposal."
      },
      "winningProposal()": {
        "notice": "Compute the winning proposal"
      }
    },
    "version": 1
  }
}